:1000E2000808007C8282827C000008107FBFDFEF5C
:0400F200F7FBFDFE1D
:0400F7007F017E0007
:0B00FB00EF1FAC0670011E4C70F622D7
:02008F00AD07BB
:10009100E4FBEDC4131313540124FF92B4ED25E0E6
:1000A100FDC2B61200F7D2B61200F70BBB08E3C2CD
:0D00B100B51200F7D2B57F017E000200FB02
:1000BE00E4FA74102AF8E6F58074082AF8E6FF12BE
:1000CE00008F7F107E271200FBE4FF12008F0ABA0A
:0400DE0008E080DCDA
:03000000020003F8
:0C000300787FE4F6D8FD75811702004AF2
:10000F000200BEE493A3F8E493A34003F68001F249
:10001F0008DFF48029E493A3F85407240CC8C333F2
:10002F00C4540F4420C8834004F456800146F6DFC1
:10003F00E4800B01020408102040809000E2E47E6F
:10004F00019360BCA3FF543F30E509541FFEE493B6
:10005F00A360010ECF54C025E060A840B8E493A37D
:10006F00FAE493A3F8E493A3C8C582C8CAC583CAA8
:10007F00F0A3C8C582C8CAC583CADFE9DEE780BE60
:0100F6000009
:00000001FF
