:1001120010093F065B4F666D7D077F6F777C395E06
:050122007971010800E5
:0B012800EF1FAC0670011E4C70F622A9
:10008F0075900FE590640F605D7FE87E0312012885
:10009F00E590640F6053AF90EF24F5601024FE607D
:1000AF001114601324077012750801800D75080272
:1000BF00800875080380037508047590F0AF90EF02
:1000CF002450600C24E0600C24F0600C2470800E2F
:1000DF007404800674088002740C2508F508E590F6
:0B00EF0064F0600580F8E4F508AF083D
:0100FA0022E3
:1000FB00E4FD12008FAD0774082DF8E6F5807F1034
:07010B007E2712012880EBA2
:03000000020003F8
:0C000300787FE4F6D8FD75811802004AF1
:10000F000200FBE493A3F8E493A34003F68001F20C
:10001F0008DFF48029E493A3F85407240CC8C333F2
:10002F00C4540F4420C8834004F456800146F6DFC1
:10003F00E4800B0102040810204080900112E47E3E
:10004F00019360BCA3FF543F30E509541FFEE493B6
:10005F00A360010ECF54C025E060A840B8E493A37D
:10006F00FAE493A3F8E493A3C8C582C8CAC583CAA8
:10007F00F0A3C8C582C8CAC583CADFE9DEE780BE60
:0101270000D7
:00000001FF
