:1001840010083F065B4F666D7D077F6F777C395E95
:0201940079717F
:040197007F887E13CC
:0B019B00EF1FAC0670011E4C70F62236
:10000300E4F5187590F7E59064F76028120197AF4F
:1000130090EF2449601124E0601224F060132470EF
:100023007012751801800D75180580087518098000
:100033000375180DE590B4F7FB7590FBE59064FB31
:100043006028120197AF90EF2445601124E06012FD
:1000530024F0601324707012751802800D75180651
:10006300800875180A800375180EE590B4FBFB75BC
:1000730090FDE59064FD6028120197AF90EF244353
:10008300601124E0601224F060132470701275185C
:1000930003800D751807800875180B800375180FFA
:1000A300E590B4FDFB7590FEE59064FE60281201B7
:1000B30097AF90EF2442601124E0601224F06013A4
:1000C30024707012751804800D751808800875184F
:0D00D3000C8003751810E590B4FEFBAF180B
:0100E00022FD
:10016D00E4FD120003AD0774072DF8E6F5807F104E
:07017D007E2712019B80EBBD
:030000000200E11A
:0C00E100787FE4F6D8FD75811802012834
:1000ED0002016DE493A3F8E493A34003F68001F2BB
:1000FD0008DFF48029E493A3F85407240CC8C33314
:10010D00C4540F4420C8834004F456800146F6DFE2
:10011D00E4800B0102040810204080900184E47EED
:10012D00019360BCA3FF543F30E509541FFEE493D7
:10013D00A360010ECF54C025E060A840B8E493A39E
:10014D00FAE493A3F8E493A3C8C582C8CAC583CAC9
:10015D00F0A3C8C582C8CAC583CADFE9DEE780BE81
:010196000068
:00000001FF
