:1001000010083F065B4F666D7D078F6F777C395E09
:02011000797103
:0B011300EF1FAC0670011E4C70F622BE
:10008F007D07EDB40800504D90009EF828287302AC
:10009F0000B60200BA0200BE0200C20200C6020091
:1000AF00CE0200D60200DED2A4800ED2A48012D2DD
:1000BF00A48016D2A4801AC2A4D2A3D2A28016C240
:1000CF00A4D2A3C2A2800EC2A4C2A3D2A28006C28F
:1000DF00A4C2A3C2A2C374079D2408F8E6F5807FCB
:1000EF00647E00120113E4F5801DEDC3940050925D
:0100FF0022DE
:03011E0002008F4D
:03000000020003F8
:0C000300787FE4F6D8FD75811702004AF2
:10000F0002011EE493A3F8E493A34003F68001F2E8
:10001F0008DFF48029E493A3F85407240CC8C333F2
:10002F00C4540F4420C8834004F456800146F6DFC1
:10003F00E4800B0102040810204080900100E47E50
:10004F00019360BCA3FF543F30E509541FFEE493B6
:10005F00A360010ECF54C025E060A840B8E493A37D
:10006F00FAE493A3F8E493A3C8C582C8CAC583CAA8
:10007F00F0A3C8C582C8CAC583CADFE9DEE780BE60
:0101120000EC
:00000001FF
