:0A00EC0008080102040810204080FB
:0400DE007F017E0020
:0A00E200EF1F70011E144E70F7228C
:02008F00AD07BB
:10009100E4FBEDC4131313540124FF92B4ED25E0E6
:1000A100FDC2B61200DED2B61200DE0BBB08E3C2FF
:0D00B100B51200DED2B57F017E000200E234
:1000BE00E4F580E4FCE4FF12008F74082CF8E6FFF0
:1000CE0012008F7F107E271200E20CBC08E780E33F
:03000000020003F8
:0C000300787FE4F6D8FD75810F02004AFA
:10000F000200BEE493A3F8E493A34003F68001F249
:10001F0008DFF48029E493A3F85407240CC8C333F2
:10002F00C4540F4420C8834004F456800146F6DFC1
:10003F00E4800B01020408102040809000ECE47E65
:10004F00019360BCA3FF543F30E509541FFEE493B6
:10005F00A360010ECF54C025E060A840B8E493A37D
:10006F00FAE493A3F8E493A3C8C582C8CAC583CAA8
:10007F00F0A3C8C582C8CAC583CADFE9DEE780BE60
:0100F6000009
:00000001FF
